:020000040800F2
:10000000E80600200D020008B7030008AF0300084F
:10001000B3030008A90300088906000800000000D7
:10002000000000000000000000000000BB0300080A
:10003000AD03000800000000B903000889040008AF
:1000400027020008270200082702000827020008EC
:1000500027020008270200082702000827020008DC
:1000600027020008270200082702000827020008CC
:1000700027020008270200082702000827020008BC
:1000800027020008270200082702000827020008AC
:10009000270200082702000827020008270200089C
:1000A000270200082702000827020008270200088C
:1000B0002905000827020008270200082702000877
:1000C000270200082702000827020008270200086C
:1000D000270200082702000827020008270200085C
:1000E000270200082702000827020008000000007D
:1000F0000000000000000000000000000000000000
:10010000000000002702000827020008000000008D
:10011000270200082702000800000000000000007D
:10012000270200082702000827020008270200080B
:1001300000000000000000000000000000000000BF
:10014000000000000000000000000000270200087E
:10015000000000000000000027020008270200083D
:10016000000000000000000000000000270200085E
:1001700000F002F800F03AF80AA090E8000C82447F
:100180008344AAF10107DA4501D100F02FF8AFF25C
:10019000090EBAE80F0013F0010F18BFFB1A43F065
:1001A00001031847A8270000C8270000103A24BF01
:1001B00078C878C1FAD8520724BF30C830C144BFCC
:1001C00004680C607047000000230024002500260E
:1001D000103A28BF78C1FBD8520728BF30C148BFAA
:1001E0000B6070471FB51FBD10B510BD00F0AAF819
:1001F0001146FFF7F7FF01F005F900F0C8F803B466
:10020000FFF7F2FF03BC00F041FA00000948804705
:1002100009480047FEE7FEE7FEE7FEE7FEE7FEE7E8
:10022000FEE7FEE7FEE7FEE704480549054A064B00
:10023000704700008D04000871010008E8000020EC
:10024000E8060020E8020020E8020020704753EA98
:10025000020C00F069802DE9F04B4FF00006002BF6
:100260001FBFB3FA83F503FA05F424FA05F65E40DE
:1002700012BF1643B2FA82F502FA05F4C5F1200561
:100280001EBF22FA05FC44EA0C04203556EA044C51
:100290004FEA144418BF641C4FF000084FF00009E7
:1002A000904271EB030C39D3002919BFB1FA81F7E1
:1002B00001FA07F6B0FA80F700FA07F6C7F120074F
:1002C0001EBF20FA07FC46EA0C062037B6FBF4FCFA
:1002D000A7EB0507103F07F01F0BCBF120060CFA28
:1002E0000BFB2CFA06F644BFB3460026202FA4BF12
:1002F0005E464FF0000B5BEA060C08BF4FF0010BA7
:1003000019EB0B09ABFB027C48EB0608C01B06FB94
:1003100002CC0BFB03CC71EB0C01C1E70B46024690
:1003200041464846BDE8F08B13B54FF000004FF052
:100330000001AFF30080BDE81C4070477047704774
:1003400070477047754600F02BF8AE4605006946C9
:10035000534620F00700854618B020B5FFF764FF2C
:10036000BDE820404FF000064FF000074FF00008B6
:100370004FF0000B21F00701AC46ACE8C009ACE837
:10038000C009ACE8C009ACE8C0098D46704710B59B
:100390000446AFF300802046BDE81040FFF72FBFB2
:1003A000004870478800002000BFFEE7704700BF8C
:1003B000FEE700BFFEE77047704770472DE9F04742
:1003C00025484088254908800846008802F0F2F850
:1003D0008146234902F036F9044601F06FFF0746D3
:1003E000204A214B01F0BEFD054601F089FD1F4961
:1003F00008601F491D48006802F022FA05464FF0C8
:10040000804101F0F5FF04461A4902F01BF91A4930
:10041000086000211848006802F0E0F802D20020CD
:100420001549086013491448006802F0D7F902D250
:100430001048114908600F490F48006801F0D8FFC3
:1004400005460E4902F0FEF804460D4901F062FF30
:100450000C490860BDE8F087540000205C000020D3
:100460000B2C553A52B81E85EB51E83F6000002036
:10047000CDCC4C3F0000C842640000206666663F59
:10048000CDCCCC3D50000020704700002248C06910
:1004900020F0805000F180501F49C8611F4800784B
:1004A00040F004001D49503981F850001A48C069D5
:1004B00020F080501849C8610846006820F001000B
:1004C000401C086000BF14480068C0F340000028CA
:1004D000F9D01148406820F003000F49486000BF80
:1004E0000D484068C0F381000028F9D10A4800682F
:1004F0000B490840084908600020486041F6107028
:10050000C8624FF4801008634FF41F008860C8036E
:10051000044908607047000000100240507000401D
:10052000FFFFF2FE08ED00E070B50221480701F080
:10053000E5FB00287ED00221480701F02CFB0021BA
:100540004FF0804001F0F2FA3F4908604FF48061BB
:100550003E4800F0BCFE08B1012000E000203C490C
:1005600008704FF400413B4800F0B1FE08B1012093
:1005700000E00020384908700821344800F0A7FE48
:1005800008B1012000E000203449087030480078AC
:1005900080003149097840EA410030490978084330
:1005A0002F4908700846007818B1084600780728D7
:1005B00010D12C480078FF280BD02A48007840B191
:1005C00028480078072804D0264800782449087075
:1005D00004E070BD22480078224908701A4800687B
:1005E00021490968401A214908600846006890B10D
:1005F000084600681E4908601C48006801F0DAFFE0
:1006000005461C4902F01EF8044621461A4801F02E
:10061000EFFE1A4908600C4800681349086010484A
:1006200000781749097888420BD00D4800781449A2
:10063000087000E005E0134801680948007800F000
:100640001DFF00BFC5E7000014000020000C0140A2
:100650001C000020000801401D0000201E0000209A
:100660001F0000200F0000200400002018000020C0
:10067000080000200000904163BFBF4A0000002036
:10068000100000205000002000BFFEE770470B78EC
:10069000426863F3082242604B78826863F3410248
:1006A00082608B78826863F3CB228260CA78521EA4
:1006B000C36A62F31753C36270470021017041702F
:1006C00081700121C1707047816821F008010831F3
:1006D0008160704701468868C0F3C00008B10120FE
:1006E00070470020FCE7816821F00401091D81604A
:1006F000704701468868C0F3800008B10120704748
:100700000020FCE7826861F30822826070478268FB
:1007100061F300028260704700B589B00121514841
:1007200000F0C8F901214F48401C00F0C3F9012135
:100730004C48C01D00F0BEF901214FF4A01000F09C
:10074000B9F907A800F064FD03208DF82200042009
:100750008DF821008420079007A9434800F063FD2D
:100760000320079007A9414800F05DFD404800F0D4
:10077000F9F806A8FFF7A1FF01208DF81800002066
:100780008DF819008DF81A0004208DF81B0006A9B9
:100790003748FFF77CFF072301221946344800F051
:1007A0006DF8072302221146314800F067F807234D
:1007B000032208212E4800F061F8072304220921B2
:1007C0002B4800F05BF801220D21294800F0AAF81F
:1007D00001212748FFF79BFF2548FFF775FF00BF62
:1007E0002348FFF777FF0028FAD12148FFF77BFF66
:1007F00000BF1F48FFF77DFF0028FAD101211C48E8
:10080000FFF780FF1B4800F0C7FC01A800F017FCB1
:1008100017484C300190184802900020ADF80C00A9
:100820000420ADF80E0000208DF8100001208DF896
:1008300011008DF812008DF813008DF814000220BD
:100840008DF8150001A90B4800F078FC0122114633
:100850000848083800F026FC0121064800F0EAFBB1
:1008600009B000BD0200180000080140000C014062
:1008700000240140080002405400002070B50446E6
:100880000A290CDA206901EB41060725B540A84387
:1008900001EB410503FA05F5284320610FE0E0680C
:1008A000A1F10A0505EB45060725B540A843A1F1CE
:1008B0000A0505EB450503FA05F52843E0600D2A16
:1008C00010DBE06AA2F10D0505EB85061F25B5409A
:1008D000A843A2F10D0505EB850501FA05F52843AE
:1008E000E0621EE0072A0EDB206BD51F05EB8506B4
:1008F0001F25B540A843D51F05EB850501FA05F571
:10090000284320630DE0606B551E05EB85061F250F
:10091000B540A843551E05EB850501FA05F52843AA
:10092000606370BD07290ADD836823F0007303F15B
:1009300000738360836861F35343836007E08368D7
:1009400023F000738360836861F35343836083689B
:1009500062F3145383607047826861F39652826039
:100960007047000010B504460548844207D10121B4
:10097000044800F0C1F80021024800F0BDF810BDA5
:100980000024014009000C0010B500F037FB10BD39
:100990000349496860F30711014A5160704700003C
:1009A000001002400349496860F30A21014A51607E
:1009B00070470000001002400349496860F3CD21F0
:1009C000014A51607047000000100240012807D121
:1009D0000749496D21F030013031054A516505E084
:1009E0000349496D21F03001014A5165704700000B
:1009F00000100240052827D2DFE800F0030A111892
:100A00001F00134A126861F30002114B1A601CE0C8
:100A10000F4A126861F310420D4B1A6015E00C4A40
:100A2000126861F318620A4B1A600EE0084A126AF3
:100A300061F30002064B1A6207E0054A526A61F34D
:100A40000002034B5A6200E000BF00BF7047000085
:100A50000010024010B501460020094B03EB114283
:100A6000126801F01F040123A3401A4001F01F0483
:100A70000123A3409A4200D000E0012010BD0000F5
:100A80000010024030B50024002500E0641C112055
:100A9000FFF7E0FF012802D0B4F5405FF6D3112044
:100AA000FFF7D8FF012801D0002500E001252846E6
:100AB00030BD000010B501290DD10E4B03EB1042E3
:100AC000126800F01F040123A3401A43094C04EBF1
:100AD00010431A600CE0074B03EB1042126800F061
:100AE0001F040123A3409A43024C04EB10431A60F5
:100AF00010BD00000010024010B501290DD10E4BB1
:100B000003EB1042126800F01F040123A3401A43B4
:100B1000094C04EB10431A600CE0074B03EB104246
:100B2000126800F01F040123A3409A43024C04EB17
:100B300010431A6010BD00000010024030B502469C
:100B40000020002372B9354C646824F48034334D9E
:100B50006C6033482C46246B24F0007404F100745C
:100B60002C6319E02D4C646824F4803404F580343F
:100B70002A4D6C60012A06D12A482C46646824F468
:100B800000346C6008E02848244C646824F4003485
:100B900004F50034214D6C60244CA04204D9244C4F
:100BA000A04201D2002326E0224CA04204D9224CCC
:100BB000A04201D201231EE0204CA04204D9204CC7
:100BC000A04201D2022316E01D4CA04204D91D4CC4
:100BD000A04201D203230EE01B4CA04204D91B4CBF
:100BE000A04201D2042306E0184CA04203D9184CBD
:100BF000A04200D20523094C646861F39544074D77
:100C00006C600D09054C646865F35E74034D6C609F
:100C10002C46E46A63F31A64EC6230BD00100240B3
:100C200000093D00002D31018096980060823B0054
:100C3000404B4C0080584F00105E5F0094357700A9
:100C4000101B7F0020BCBE00286BEE0030D73D019A
:100C5000D8E9DC011648006820F00100401C144966
:100C6000086000BF12480068C0F340000028F9D0B7
:100C70000F48406820F003000D49486000BF0C4851
:100C80004068C0F381000028F9D10948006809498B
:100C90000840074908600020486041F61070C862AB
:100CA0004FF4801008634FF41F0088607047000005
:100CB00000100240FFFFF2FE0D49496860F3010198
:100CC0000B4A516000BF00BF00BF00BF00BF00BFA4
:100CD00000BF00BF00BF00BF00BF00BF00BF00BF1C
:100CE00000BF00BF00BF00BF00BF00BF70470000D3
:100CF0000010024002484068C0F3810070470000C5
:100D0000001002402DE9F05F012207212948FFF77A
:100D100009FE0027B846B946022000F09DF9BA4600
:100D20002AE001212348FFF717FE00BF022000F050
:100D3000A3F90028FAD0022000F08EF91E4804889A
:100D40008588C688204601F035FC8346394601F087
:100D5000E1FA0746284601F02DFC8346414601F0A2
:100D6000D9FA8046304601F025FC8346494601F019
:100D7000D1FA81460AF1010A40F6B8308245D0DB4B
:100D80000E49384601F034FB0D4908600B494046D6
:100D900001F02EFB0B4908600849484601F028FB8A
:100DA0000949086001220D210248FFF7BBFDBDE89B
:100DB000F09F0000002401405400002000803B45CB
:100DC0003000002034000020380000202DE9F04FD2
:100DD00085B07A4802904FF0000A4FF0000B0020D7
:100DE0000490039026E000BF022000F045F900289F
:100DF000FAD0022000F030F97149088801F0DAFBDE
:100E00005146019001F086FA82466D49888801F0CA
:100E1000D1FB5946019001F07DFA83466849C888A4
:100E200001F0C8FB0190049901F074FA0490039852
:100E3000401C039003980828D5DB4FF082415046B0
:100E400001F0D6FA07464FF08241584601F0D0FA39
:100E500080464FF08241049801F0CAFA8146594811
:100E60000168384601F0ECFC5749019001F0EAFBBB
:100E7000044656480168404601F0E2FC52490190A0
:100E800001F0E0FB054652480168484601F0D8FCF5
:100E90004D49019001F0D6FB06464E49204601F02F
:100EA000A7FA07464B49284601F0A2FA804649496D
:100EB000304601F09DFA81460021384601F08EFB54
:100EC00000D200270021404601F088FB01D24FF0FC
:100ED00000080021484601F081FB01D24FF00009D3
:100EE0003D48007858B13D4807603D48C0F8008053
:100EF0003C48C0F8009000203749087032E037487D
:100F00000168384601F09CFC0090029901F09AFBC0
:100F1000019032480168019801F0FCF92F490860FE
:100F20002F480168404601F08BFC0090029901F0C7
:100F300089FB01902A480168019801F0EBF92849E2
:100F4000086028480168484601F07AFC0090029940
:100F500001F078FB019023480168019801F0DAF96B
:100F6000204908601D4800681F4908601C48006847
:100F70001E4908601B4800681D4908601D4800782C
:100F800020B1012807D002280FD109E013480068DA
:100F9000194908600DE0124800681749086008E028
:100FA000104800681449086003E0002012490860F6
:100FB00000BF00BF05B0BDE8F08F0000CDCC4C3DB8
:100FC00054000020300000200B2C553A3400002043
:100FD00038000020FBED6B3B74000020680000200F
:100FE0006C00002070000020200000202400002061
:100FF000280000200E0000202C00002010B5042046
:1010000000F038FD074800680749B0FBF1F00749D8
:101010000860084600684FF47A7148430449086044
:1010200010BD00008400002040420F007800002026
:101030007C000020026861F300020260704700211A
:101040000160416001814181017341738173C1730A
:101050000174417470470000B0F1805F04D920F042
:101060007041034A116001E0024948607047000086
:101070000404024000000240014600200022B1F1B9
:10108000805F02D9054B1A6801E0054B1A6802EA35
:1010900001030BB1012000E0002070470004024072
:1010A00000000240D0F8A430C3F300633BB9D0F88D
:1010B000A43023F0807303F18073C0F8A4300129B9
:1010C00006D1D0F8A03062F30703C0F8A03034E0B6
:1010D000022906D1D0F8A03062F30F23C0F8A03067
:1010E0002BE0032906D1D0F8A03062F31743C0F8F3
:1010F000A03022E0042906D1D0F8A03062F31F63AB
:10110000C0F8A03019E0052906D1D0F8A43062F368
:101110000703C0F8A43010E0062906D1D0F8A430A7
:1011200062F30F23C0F8A43007E0072905D1D0F8F7
:10113000A43062F31743C0F8A430704702684BF63E
:10114000EF731A40026002680B891A4302604B7CFD
:10115000026863F30D320260CB7B026863F38B227B
:1011600002608B7B026863F3092202604B7B02689A
:1011700063F3C71202600B7B026863F3861202609E
:101180000B7C026863F3451202604A8942600A6878
:1011900082604A68C26070470021026822F0010242
:1011A00002600022026042608260C260014640F23A
:1011B000FF420A40B2F5816F0DD2CAB2083A142339
:1011C000B2FBF3F293000F229A400D4B5B681A4377
:1011D0000B4B5A6012E040F2FF420A40B2F5916FA9
:1011E0000CD2CAB2083A1423B2FBF3F293000F22D6
:1011F0009A40044B1B681A43024B1A607047000068
:1012000000000240040402404161704701617047E0
:101210004FF6FF710160002181710171042141715C
:101220000121C1717047F0B50A461588ABB29579B6
:10123000032D01D100241AE0957965B9557905F09F
:101240000F045579182D01D1036110E05579282D2F
:101250000DD143610BE0957905F00805167906F08C
:1012600004063543D67906F0030645EA0604DDB2E6
:10127000A5B1002110E001258D401D405DB105683C
:101280008F000F26BE40B543056005688E0004FA46
:1012900006F635430560491C0829ECD3FF2B15DD04
:1012A0001B12002110E001258D401D405DB14568F5
:1012B0008F000F26BE40B543456045688E0004FA96
:1012C00006F635434560491C0829ECD3F0BD0246BB
:1012D000002093680B408B4200D000E00120704753
:1012E000F0B50C46104F07EB1062C0F30741C0F396
:1012F0000725C6B2C5F12007A7EB010C4FF0FF3759
:1013000007FA0CF3C5F120077F1AFB40CB408B4056
:1013100017689F4317602CB106FA01FC176847EA6B
:101320000C071760F0BD0000000001400EB5012160
:101330004FF4C010FFF7BEFB01212D48FFF7BAFBA9
:1013400001212B48401CFFF7B5FB01214FF4E010B1
:10135000FFF7B0FB01212748FFF7C2FF01A8FFF705
:1013600057FF00208DF80A0018208DF809004FF46F
:101370000040019001A92048FFF755FF4FF481601C
:10138000019001A91D48FFF74EFF01211C48FFF7FE
:10139000A7FF77224FF0FF314FF0804000F08CFB29
:1013A00000214FF0804000F0ECFB0121880700F0A5
:1013B00075FB0121880700F0B4FB0121880700F0CC
:1013C000EDFB684600F087FC00208DF8000003204C
:1013D0008DF8010001208DF8020006208DF8030031
:1013E000002269464FF0804000F0DDFB0EBD00009A
:1013F000020018000203103000080140000C0140F8
:1014000003030424032000F0B3F900F04BFAFFF7C4
:10141000BBFAFFF78BFF00F077F8FFF77DF9FFF7D6
:1014200071FC01220221480700F05DFC002201212D
:101430001C2000F039F90121880700F0A7FB0024E7
:1014400016E0FFF7C3FCFEF7B9FF8CB90948007836
:10145000FF280DD00748007850B1064800780728CB
:1014600006D0054801680348007800F007F8012419
:10147000E7E700000F0000205000002038B50446C8
:101480000D460CB1072C0ED11B480078FF2806D062
:101490001948007818B118480078072800D138BDDD
:1014A0001548047801E014480470144800EB440027
:1014B000008800909DF800001149097888420BD1FE
:1014C0009DF801000F490978884205D19DF8000078
:1014D000294600F061F9E2E70021084600F0B0F982
:1014E0009DF80000294600F057F99DF80100012100
:1014F00000F0A6F900BFD2E70F0000202A2900085B
:101500000D0000200E00002000B589B001216248C6
:10151000FFF7D0FA01216048401CFFF7CBFA012108
:101520005D480930FFF7C6FA01214FF4C010FFF7FC
:10153000C1FA07A8FFF76CFE08208DF822000020F2
:101540008DF8200028208DF8210001208DF823003F
:101550004FF4E060079007A95048FFF764FE1020A1
:101560008DF8220000208DF8200028208DF8210021
:101570004FF46040079007A94948FFF754FE4FF425
:1015800060414748FFF740FE77223121454800F08F
:1015900093FA0021434800F0F4FA05A800F0A2FCF9
:1015A00006208DF8140000208DF815008DF8160027
:1015B0008DF817008DF8180001208DF81900002013
:1015C0008DF81A0005AA0021364800F0A3FB05AAF1
:1015D0000221344800F09EFB05AA0421314800F0A6
:1015E00099FB01A800F07EFC07208DF80400002084
:1015F0008DF805008DF8060001208DF807008DF8A4
:10160000080000208DF809008DF80A0001AA0621C3
:10161000244800F07FFB19220621224800F09DFAA1
:101620002048001D006820F0700040301D49091D51
:10163000086003A800F06CFA78208DF80C000120F7
:101640008DF80D0000208DF80E0001208DF80F00A0
:1016500000208DF810008DF811008DF8120003A9FC
:10166000104800F031FA01210E4800F044FC00223D
:1016700011460C4800F071FA00220221094800F0DE
:101680006CFA00220421074800F067FA012105489E
:1016900000F07CFA09B000BD02001800000801400B
:1016A000000C0140002C01402DE9F0470B46144688
:1016B0004FF0000C00BF2C4A1268C2F302211D46F5
:1016C00026460A46C2F10709B9F1040F02D94FF0C4
:1016D000040901E0C2F10709C84602F10409B9F1A1
:1016E000070F02D24FF0000901E0A2F103094F46B3
:1016F0004FF0010909FA08F9A9F1010909EA0509F8
:1017000009FA07F94FF0010A0AFA07FAAAF1010AE1
:101710000AEA060A49EA0A09CC4601466246002955
:1017200004DB15072E0E114D6E5407E015072F0E22
:101730000D4D0C3501F00F06361FAF5500BF0146A9
:1017400000290DDB00BF00BF01F01F050122AA40E8
:101750004D09AD0005F1E025C5F8002100BF00BF2F
:1017600000BFBDE8F08700000CED00E000E400E001
:1017700000BF00F00702064B19684FF6FF0319403F
:10178000044B0B4343EA0221014B196000BF704731
:101790000CED00E00000FA052DE9F04104460D468D
:1017A0002449284600F04EFF074600F0E3FE0646B7
:1017B000322E00D9322620480078FF281FD01E483C
:1017C0000078A0421BD01C48007828B900220421D0
:1017D0001A4800F0C2F912E017480078012805D134
:1017E00000220221154800F0B8F908E012480078FC
:1017F000022804D100221146104800F0AEF92CB99D
:10180000324604210D4800F0A8F90EE0012C05D164
:1018100032460221094800F0A0F906E0022C04D16A
:1018200032460021054800F098F903480470BDE8ED
:10183000F0810000000048420D000020002C014013
:1018400070B504460D464FF400411448FFF7DCFC28
:101850004FF480411148FFF7D7FC4FF400510F4877
:10186000FFF7D2FCB5B12CB94FF400410B48FFF79C
:10187000CDFC0CE0012C04D1A1030848FFF7C6FC05
:1018800005E0022C03D121030448FFF7BFFC044804
:10189000047002E0FF200249087070BD000C014096
:1018A0000E00002010B5FFF7D5F914201949086083
:1018B00001210846FFF79EF800BFFFF7E3F8002874
:1018C000FBD00C210220FFF739F901210220FFF79C
:1018D00091F800BF1920FFF7BDF80128FAD10020C8
:1018E000FFF756F80420FFF767F80420FFF75AF8CF
:1018F0000120FFF76BF80220FFF7DEF900BFFFF7CA
:10190000F9F90228FBD10020FFF760F800F004F895
:1019100010BD0000002002402DE9FF5F00240025DB
:101920000026A146A246A346002003900290019003
:10193000FFF7E0F90090009820B1012814D00228A8
:1019400074D115E04348406DC0F3402040B1414898
:10195000006BC0F3406018B13F484049086002E0A6
:101960003F483E49086065E03E483C49086061E008
:1019700038484068C0F300463648C06AC00F20BBF4
:1019800034484068C0F3834432484068C0F341752E
:101990000DB90F2C03D12801401C044400E0A41C05
:1019A00026B9314860432D4908603DE02948406828
:1019B000C0F3404020B12D4860432849086033E01F
:1019C00028486043254908602EE02248C06AC0F3D9
:1019D000031003901F48C06AC0F3082002901D48FE
:1019E000C06A00F00700019016B9DFF87CB009E08A
:1019F00018484068C0F3404010B1DFF870B001E013
:101A0000DFF860B00121019801FA00F0039900FBB2
:101A100001FC0298ABFB0070014662460023384689
:101A2000FEF715FC0D49086004E0FFE70C480B4980
:101A3000086000BF00BF07484068C0F303190C48A6
:101A400010F809A00548006820FA0AF00349086068
:101A5000BDE8FF9F00100240006CDC028400002003
:101A600000127A00002D310100093D008096980097
:101A70003A290008042808D14FF0E021096941F013
:101A800004014FF0E022116107E04FF0E021096905
:101A900021F004014FF0E02211617047B0F1804F56
:101AA00002D0044A904203D1026861F38A220260A4
:101AB00070470000000C0040C1628262436923F05D
:101AC00001035B1C436170478B79426C63F30C32FA
:101AD00042640B78426C63F3070242644B79426CB8
:101AE00063F38A2242640B79426C63F3CB22426433
:101AF0004B78426C63F34D324264CB78426C63F3B3
:101B00008E3242648B78426C63F3092242647047E0
:101B10000021017041708170C1700171417181714A
:101B20007047426861F3C7124260704710B50246C1
:101B300000200B4633B1022B06D0042B06D0062B17
:101B400008D105E0506B06E0906B04E0D06B02E03A
:101B5000106C00E000BF00BF10BD0B4633B1022B7C
:101B600006D0042B06D0062B08D105E0426306E020
:101B7000826304E0C26302E0026400E000BF00BFD1
:101B80007047026861F3061202607047026861F3F1
:101B9000000202607047CA4302617047426861F305
:101BA00082024260704730B500230B7833B1022BBC
:101BB00027D0042B48D0062B7DD169E0046A24F09D
:101BC000010404624D78046A65F3410404624C78B0
:101BD0006508046A65F3C30404628D78846965F35B
:101BE00001048461CD78846965F307148461846994
:101BF00062F383048461046A24F00104641C0462B7
:101C000067E0046A24F0100404624D78046A65F306
:101C1000451404624C786508046A65F3C7140462CD
:101C20008D78846965F309248461CD78846965F3CE
:101C30000F348461846962F38B248461046A24F024
:101C400010041034046244E0046A24F480740462D2
:101C50004D78046A65F3492404624C786508046A87
:101C600065F3CB2404628D78C46965F30104C46113
:101C7000CD78C46965F30714C461C46962F3830451
:101C8000C461046A24F4807404F58074046220E062
:101C9000046A24F4805404624D78046A65F34D3478
:101CA00004628D78C46965F30924C461CD78C46980
:101CB00065F30F3400E00BE0C461C46962F38B2468
:101CC000C461046A24F4805404F58054046200E082
:101CD00000BF00BF30BD0021017041700121817043
:101CE0000021C1707047012A03D1C3680B43C36050
:101CF00003E012B9C3688B43C360704702460020FB
:101D000013690B4023B1D3680B400BB1012000E0F5
:101D1000002070472DE9F04100260027002501F141
:101D200008035C1C92F801C00CFA03FC1FFA8CF645
:101D300092F802C00CFA04FC1FFA8CF7D0F8048069
:101D40004FF0010C0CFA04FC28EA0C08C0F80480DF
:101D5000D0F804C04CEA070CC0F804C0D0F80480E6
:101D60004FF0010C0CFA03FC28EA0C08C0F80480C0
:101D7000D0F804C04CEA060CC0F804C00D464B0075
:101D80004FF0020C0CEB41044FF0010808FA04F884
:101D9000D0F820C02CEA080CC0F820C04FF0010C8D
:101DA0000CFA03FCD0F8208028EA0C08C0F8208048
:101DB00035B1022D13D0042D20D0062D3CD12CE0BE
:101DC000D0F818C02CF0030CC0F818C092F80080AE
:101DD000D0F818C068F3061CC0F818C02DE0D0F881
:101DE00018C02CF4407CC0F818C092F80080D0F8DD
:101DF00018C068F30E3CC0F818C01EE0D0F81CC034
:101E00002CF0030CC0F81CC092F80080D0F81CC065
:101E100068F3061CC0F81CC00FE0D0F81CC02CF4FE
:101E2000407CC0F81CC092F80080D0F81CC068F359
:101E30000E3CC0F81CC000E000BF00BF4FF0010C1A
:101E40000CEB41034FF0030C0CEB410492F803C080
:101E50000CFA03FC1FFA8CF692F804C00CFA04FC8E
:101E60001FFA8CF74FF0010C0CFA04FCD0F820801C
:101E700028EA0C08C0F82080D0F820C04CEA070CF3
:101E8000C0F820C04FF0010C0CFA03FCD0F8208001
:101E900028EA0C08C0F82080D0F820C04CEA060CD4
:101EA000C0F820C092F805C04FEA41080CFA08FCBF
:101EB0001FFA8CF692F806C04FF0020808EB4108B2
:101EC0000CFA08FC1FFA8CF7D0F820C04CEA070C7B
:101ED000C0F820C0D0F820C04CEA060CC0F820C0E2
:101EE000BDE8F0810021017041708170C170017105
:101EF000417181717047426C61F3CF324264704727
:101F000021F00042A2F16052B2F5801F01F00043BF
:101F100028BFD2F17F6C0BD95FEA001C43EAC202F2
:101F200042EB507018BF704728BF20F00100704787
:101F3000B2F5801FBCBF184670474FEA410C1CF534
:101F4000001F02D2084600F044BC70B500F062F9F0
:101F500000000089FFF7F6BF4FF00040A0F58000B9
:101F6000704700002DE9C04130B4DFF8A0C23CEA60
:101F7000111418BF3CEA131400F0EC8081EA030549
:101F80001CEA111444EAD57418BF1CEA131500F0BA
:101F9000C780A4EB05044FF0004545EAC12145EA9E
:101FA000C32341EA505143EA525304F17F749942EA
:101FB00004F500344FEAC0204FEAC22208BF904225
:101FC00000F09C804FEA13650FF24016765D4FEAF1
:101FD000134506FB05F7C7F1807706FB07F74FEAC5
:101FE000D737A7FB03687642C8F58038A7FB06CE33
:101FF00038BFA8F1010807FB08E64FF0000EA6FB6A
:10200000028CE6FB03CEDCF1000CCEF1004E38BFB3
:10201000AEF1010EA6FB0C584FF000074FF0000583
:10202000E6FB0E87A1FB08C6A0FB07CE16EB0E064B
:1020300045F10005E1FB076515F1E04E7EBFA4F513
:1020400080345FEA46066D4116F1800745F10005D0
:102050004FEA17274FEA066647EA0567A6F1DE460C
:10206000B6F1805F4FEA15251FD9384624F0010CE0
:1020700005EBC471BCF1FE6F01EB0C1102D8F0BC92
:10208000BDE8008124425CBF01F5801E9EEAC47F4A
:1020900002D4F0BCBDE80081244238D4F0BCA1F1E8
:1020A000C041BDE8004100F003B94FEAD22242EA44
:1020B00043524FEAD323A7FB02864FEAD02040EADF
:1020C000415007FB03661EEA0E0F4FEAD12105FBC4
:1020D000026658BFA6EB0056B6EB00564FEA520E0A
:1020E0004EEAC37E18EB0E0E56EB530EBDD518EB21
:1020F00002085E417F1C55F10005B6E74FF48015DC
:102100004FF000074FF000064FF00008ADE7F0BCBD
:102110004FF0000001F1C04101F00041BDE8008135
:1021200011EA0C1F0CEA131500D00CE013EA0C1F87
:1021300000F025804FF00000F0BC81EA030101F0BF
:102140000041BDE80081F0BCBDE8004181EA030127
:1021500000F0AEB8F0BCBDE8004170B500F05AF830
:10216000097EFC3E00F007B881EA03014FF0000051
:1021700001F00041704781EA030100F099B8F0BC1A
:10218000BDE800414FF0000021497047FFFDFBF919
:10219000F7F5F4F2F0EEEDEBE9E8E6E4E3E1E0DE9A
:1021A000DDDBDAD8D7D5D4D3D1D0CFCDCCCBCAC80C
:1021B000C7C6C5C4C2C1C0BFBEBDBCBBBAB9B8B733
:1021C000B6B5B4B3B2B1B0AFAEADACABAAA9A8A826
:1021D000A7A6A5A4A3A3A2A1A09F9F9E9D9C9C9BF4
:1021E0009A9999989797969595949393929191909F
:1021F0008F8F8E8E8D8C8C8B8B8A89898888878730
:102200008685858484838382828181800000FF07A4
:102210000000F87F0EF1020E2EF0030E5EF8046B44
:10222000364205D4012A43EB030515F5001F12D8E9
:10223000012841EB010C1CF5001F0CD80ED14FEA10
:10224000D17C15F5001F0CEB4C0C0CF1020C08BFF7
:102250004CEBD37C04E04FF0080C01E04FEAD37C58
:102260000CEB4C0526FA05F606F00706B6F1040C51
:1022700006D20EEB860CBDE870404CF0010C6047B6
:10228000DFE80CF0090B02024FF000414FF00000B4
:10229000A1F5002170BD19461046012851EB01043B
:1022A00018BFD4F5001484BF002001F0004170BDB8
:1022B0000808A0F500114FEA3101704743004FEACA
:1022C000D30C4FEA3C0C43401FBF40070CF1605158
:1022D00013F0FE4F70471CF0006F03D100200CF08C
:1022E000004170470CF0004343EA507010B540EADB
:1022F000CC0000F028FA00BF000000924FEA000175
:10230000FFF7D6BF4FF000414FF00000A1F50021CC
:102310007047000090EA010F48BF81F0004100F1D2
:102320009682421A3CBF801A89184FEAD0524FF069
:102330007F4C1CEA410FA2EBD15318BF9CEA026FFD
:1023400000F03B804FF0004C4CEA00204CEA0121A9
:1023500021FA03FC10EB0C0C1ED202F1FF325FEAF3
:102360001C2040EBC25038BF70471CF07F0F4FEA73
:10237000400C18BFBCF17F4F38BF7047C3F120033A
:10238000994008BF20F00100BCF17F4F38BF704773
:10239000A0F1C04000F01DBA4FEA3C00000A40EB3B
:1023A000C25028BF1CF0FF0F4FEA400CE6D018BF08
:1023B000BCF17F4F38BF7047EAE79CEA026F05D057
:1023C00010EA5C0F08BF00F00040704710B500F045
:1023D000BAF900BF64FBBE3E401058BFC0F1404098
:1023E000491058BFC1F140418142EFF3008070476E
:1023F0004FF47F0C1CEAD0121EBF1CEAD11392EAE4
:102400000C0F93EA0C0F00F0858090EA010F48BF93
:1024100042F4807240F4000C41F400002CF07F4143
:1024200020F07F4000B58142A2EB03020FF2081CAE
:10243000ACEB504EC0F100009EF800E04FEA4E0EAB
:1024400000FB0EFC38BF49004FEA2C1C02F5FA02D3
:102450000CFB0EF34FEACE1E4FEA112C4FEAC121BE
:102460000EEB635E42EB22420EFB0CFC4FEA1C5368
:1024700000FB03114FEA112C4FEA01310EFB0CFC5B
:102480004FEADC4C00FB0C11C14228BF09184CEB91
:1024900003335DF804EB10EB410143EBC250B2F59E
:1024A0007C0F38BF704729D512F0F00F1CBF00F128
:1024B000C04000F000407047008182838485868799
:1024C00088898B8C8D8E8F919293959697999A9CF3
:1024D0009D9FA0A2A3A5A7A8AAACAEB0B2B3B5B762
:1024E000B9BCBEC0C2C5C7C9CCCED1D4D7D9DCDF38
:1024F000E2E6E9ECF0F3F7FAFE0000004FEA400CE8
:102500000CF1807CBCF17E4F28BF7047B0F1C04019
:1025100000F05FB990EA010F0CEAD11348BF42F412
:102520008072624538BF634507D213F47F0F16D01F
:1025300080EA010000F00040704710B500F003F998
:10254000097EFC3E00F005B880EA010000F0004082
:10255000704780EA010000F0004000F03AB912F440
:102560007F0F04BF0248704780EA010000F031B9D4
:102570000000C07FC10DD1F19E0206DB4FEA0023AF
:1025800043F0004323FA02F07047004207D54FEAB8
:102590004001B1F1FE4F02D24FF00000704710B57C
:1025A00000F0D1F849922480002070476FEA2000A3
:1025B00070470000B0FA80F310FA03F2C3F19D03F4
:1025C0000AD0D90501EB1220530638BF704700F13D
:1025D000010008BF20F001007047000050EA010C24
:1025E00000F113801CF5000F58BFBCF5000F01D49B
:1025F0008842704707D710F5000F58BF11F5000F3C
:1026000015D488427047894270471CF5000F04D5E5
:10261000BCF5000FF7D5814270474FF0807C1CEB72
:10262000400F38BF1CEB410F01D28142704710B5FB
:1026300000F089F8922449004FF000504FF080518B
:10264000FFF7CABE4FF47F0C1CEAD0121EBF1CEA73
:10265000D11392EA0C0F93EA0C0F00F0478090EA36
:10266000010F48BF42F480724FF0004C4CEA00204A
:102670004CEA012102EB0302A0FB0113A2F50002C8
:10268000002918BF43F001035B0028BF4FEA330362
:1026900042EB22425FEA132C4CEBC2502EBFBCEB44
:1026A000436FB2F57C0F70474FEA036CBCF1004FEB
:1026B00008BF20F00100B2F57C0F38BF70470BD582
:1026C00082F0FF0212F5803FC8BF704700F1C040A2
:1026D000D8BF00F00040704700F5000C5FEA4C0CDA
:1026E00048BF7047B0F1C04000F073B890EA010FE6
:1026F0000CEAD11348BF42F48072624538BF63458B
:1027000004D280EA010000F00040704710B500F0EC
:102710001AF800BF8900013E00F007B800F009B8C0
:102720005FEA410C5FEA1C6C08D080EA010000F00F
:1027300050B85FEA400C5FEA1C6CF6D14FF00040E5
:10274000A0F5800070470EF1020E2EF0030E5EF829
:10275000044B244204D44FEA4102B2F17F4F11D816
:102760004FEA4003B3F17F4F0CD80ED14FEAD07C33
:10277000B2F17F4F0CEB4C0C0CF1020C08BF4CEB90
:10278000D17C04E04FF0080C01E04FEAD17C0CEB67
:102790004C0324FA03F404F00704B4F1040C06D249
:1027A0000EEB840CBDE810404CF0010C6047DFE8F4
:1027B0000CF0070802024FF00040A0F5800010BDA9
:1027C0000846420018BFD2F1807288BF00F0004076
:1027D00010BDFF2141EAD050C005704751EA000CFE
:1027E00000F113801CF5000F58BFBCF5000F01D499
:1027F0008142704707D711F5000F58BF10F5000F41
:1028000015D481427047894270471CF5000F04D5EA
:10281000BCF5000FF7D5884270474FF0807C1CEB69
:10282000410F38BF1CEB400F01D28842704780EA4D
:10283000010081EA000180EA0100FFF7F8BE000014
:1028400090EA010F48BF81F000413FF56AAD421A9E
:1028500004D882F00042A0EB020011444FEAD052AB
:102860004FF07F4C1CEA410FA2EBD15318BF9CEAFA
:10287000026F4AD04FF0004C4CEA00204CEA012194
:1028800021FA03FCB0EB0C0C0FD412F0FE0F36D083
:102890005FEA4C001DD5001240EBC25038BF7047B4
:1028A0001CF03F0F18BF70470BE0A2F101025FEA76
:1028B0001C2040EBC25038BF70471CF07F0F18BF80
:1028C0007047C3F12003994014BF401E20F001005F
:1028D000704780084FEA122308BF7047B0FA80FCA7
:1028E000A2EB0C02CCF1280C60FA0CF093EA122F48
:1028F00004BF00EBC25070474FEAC3707047130A21
:102900005FEADC1008BF7047F6E79CEA026F04D06C
:1029100010EA5C0F08BF0020704710B5FFF713FFE7
:1029200040DFF63E81F000407047010001020001E7
:10293000000202000100020101000000000000008E
:102940000000010203040607080900006C290008C2
:102950000000002088000000AC010008F4290008F5
:102960008800002060060000C80100080000000088
:102970000000000000000000FFFFFFFFFF0000005C
:102980000000000000000000000000000000000047
:102990000000000000000000000000000000000037
:1029A0000000000000000000000000000000000027
:1029B000000000000000000000000000CDCCCC3D75
:1029C0000000000000000000000000000000000007
:1029D00000000000000000000000000000000000F7
:1029E00001000000000000000000000000000000E6
:0429F00000127A0057
:04000005080001717D
:00000001FF
